:020000021000EC
:10F0000000800020394F0200194F0200194F020002
:10F0100001E01E5B00000000000000000000000096
:10F02000000000000000000000000000194F020076
:10F030000000000000000000194F0200194F0200FC
:10F04000194F0200194F0200194F0200194F020018
:10F05000194F020000000000194F0200194F020072
:10F06000194F0200194F0200194F0200194F0200F8
:10F07000194F0200194F0200194F0200194F0200E8
:10F08000194F0200194F0200194F0200194F0200D8
:10F09000194F0200752E0200B5180200194F020028
:10F0A000194F0200194F020000000000000000008C
:10F0B0000000000000000000000000000000000050
:10F0C00010B5064C2378002B07D1054B002B02D03E
:10F0D000044800E000BF0123237010BD442200203B
:10F0E00000000000409E020008B5084B002B03D032
:10F0F0000748084900E000BF07480368002B03D019
:10F10000064B002B00D0984708BDC0460000000009
:10F11000409E020048220020409E020000000000A5
:10F12000054B1A68002A01D1044A1A601A6810189F
:10F130001860101C7047C04660220020482B002039
:10F1400010B5044C201C00F0EDFC201C00F0F6FC77
:10F1500010BDC0468022002008B5024800F038FDEE
:10F1600008BDC0468022002010B5041C074800F0EE
:10F170002FFD074906F0E4FA06F00CFC0A22011CF8
:10F18000201C05F0CCFD201C10BDC04680220020B4
:10F190000000C84208B5032824D805F079FF02050D
:10F1A000101F132001210CE01320012105F0B8FAF3
:10F1B0001020012105F0B4FA1220002109E01320EB
:10F1C000002105F0ADFA1020012105F0A9FA122066
:10F1D000012105F0A5FA1120012101E011200021F3
:10F1E00005F09EFA08BD08B51320012105F05EFA6E
:10F1F0001020012105F05AFA1220012105F056FADB
:10F200001120012105F052FA1120002105F088FAA1
:10F210000320FFF7BFFF08BD08B5032824D805F079
:10F2200037FF0205101F0C2001210CE00C200121EA
:10F2300005F076FA0920012105F072FA0B20012170
:10F2400009E00C20002105F06BFA0920012105F0EE
:10F2500067FA0B20002105F063FA0F20012101E07D
:10F260000F20002105F05CFA08BD08B50C20012133
:10F2700005F01CFA0920012105F018FA0B200121E4
:10F2800005F014FA0F20012105F010FA0F200021DB
:10F2900005F046FA0320FFF7BFFF08BD08B5024896
:10F2A00000F0FAFE08BDC0468423002008B5034BD9
:10F2B00001210D20197005F033FA08BD0820002047
:10F2C00008B5034B00210D20197005F029FA08BD7F
:10F2D0000820002038B50F4B01241C7005F060F9A0
:10F2E0000D4D0E4B18602B689A000D4BD0580D4BEE
:10F2F0001860FFF791FF2A680B4B9200D0580B4B18
:10F300001860FFF747FF0A4B00221A60094B1C7078
:10F3100038BDC046B8220020982200209C22002040
:10F3200028200020242000201C2000203020002045
:10F33000A8220020A022002008B5094B0120186057
:10F34000084A094B002111601860516007480222E9
:10F3500007495A6005F058FAFFF7BCFF08BDC046E0
:10F36000AC220020282000201C200020182400208F
:10F370002E97020008B5094B0949022018600123A5
:10F380000B60084B00224860074908481A605A6021
:10F3900005F03AFAFFF79EFF08BDC046AC220020F8
:10F3A000282000201C200020409702001824002064
:10F3B000054A00231370054A1360054A1360054A85
:10F3C0001360054A13707047B8220020AC22002059
:10F3D0009C22002098220020A022002038B50B4B50
:10F3E00001211A781D1C4A401A7002D0FFF7C2FF93
:10F3F00001E0FFF7DDFF064C0649201C05F0E6F9A9
:10F400002978201C0A2205F05CFA38BD78220020F9
:10F41000182400204697020038B50B4B01211A78BA
:10F420001D1C4A401A7002D0FFF786FF01E0FFF76B
:10F43000BFFF064C0649201C05F0C8F92978201C9E
:10F440000A2205F03EFA38BD64220020182400206C
:10F450003497020030B518498BB0041C05F0D1FC7C
:10F46000002802D0FFF7BAFF23E0201C134905F063
:10F47000C8FC031E02D0FFF7CFFF1AE02022201C99
:10F4800002A905F0DDFC02A808F032FA08F086F9BE
:10F490000B4D0C4C28600C49201C05F097F928688E
:10F4A00008F02AF90B1C0221021C0091201C05F017
:10F4B000D2FA0BB030BDC0468997020051970200C6
:10F4C00038200020182400205397020038B5094D39
:10F4D000041C0949281C05F079F92178281C05F03D
:10F4E0009DF92378002B02D0FFF778FF01E0FFF7AA
:10F4F00093FF38BD1824002065970200F8B5174F18
:10F500003B78002B28D005F04BF8154B154E1860B2
:10F51000154C3368C21A23689900144BCB589A4291
:10F520001AD3134D30601349281C05F04FF9281CDD
:10F5300021680A2205F0C5F92368012B0AD10023AE
:10F540000D49281C3B703360236005F03FF9FFF73D
:10F550002FFF01E001332360F8BDC046B822002030
:10F56000A42200209C2200209822002014200020A9
:10F5700018240020779702007D970200F0B58FB025
:10F58000FFF7EAFD08F0B8F8404C0B1C0221021C02
:10F590000091201C05F058FA201C3D4905F016F991
:10F5A000201C3C4905F012F93B4B0A221968201C2B
:10F5B00005F083F9201C394905F008F9384B0A2277
:10F5C0001978201C05F079F9201C364905F0FEF861
:10F5D000354E0A223168201C05F06FF9201C334992
:10F5E00005F0F4F8324F0A223968201C05F069F959
:10F5F00002A8FFF7B9FD02A906A805F074FB2D4D7E
:10F6000006A8291C05F0DFFB33689A002A4BD15865
:10F6100005F0ECFB291C05F0D6FB3268274B920065
:10F62000D15805F0E3FB291C05F0CDFB1C4B1978E4
:10F6300005F0DCFB291C05F0C6FB0A22051C396815
:10F640000AA805F06CFB0AA9281C05F0AEFB011CFA
:10F6500002A805F038FB0AA805F0DAFA06A805F0BA
:10F66000D7FA002302A80AA9102205F0E9FB0AA98B
:10F67000201C05F0C9F80AA91022114800F0EAF987
:10F6800002A805F0C5FA0FB0F0BDC046182400204E
:10F690008B9702008F970200A82200209997020002
:10F6A000B8220020A997020098220020C1970200EA
:10F6B000AC220020D1970200282000201C2000202E
:10F6C000BC22002008B5054B1A68054B1868111AB2
:10F6D000C72902D91A60FFF751FF08BDB0220020E8
:10F6E0009422002010B5074C0749201C05F0D7FADA
:10F6F000064A201C064905F093FC4021054800F00D
:10F70000DDF910BD68220020079A020000200020C9
:10F71000114C02008022002038B5094C051C2C2118
:10F72000201C00F0FBFC201C002100F0B0FA236834
:10F73000E9B21B68201C9847201C00F016FD38BD5C
:10F7400084230020962108B589010F4805F0D0F9DF
:10F750000E480F4B43600F4B836000F01DF9FFF71D
:10F7600084FDFFF740FDFFF799FDFFF7E9FC0D2051
:10F77000012104F09BFF0D20002104F0D1FF0020A7
:10F78000FFF7CAFF08BDC04618240020BC22002095
:10F79000D3970200D997020008B5054A054B1268B5
:10F7A0001868904203DA01301860FFF7B5FF08BD12
:10F7B00034200020A82200200B4B0C4A1868126845
:10F7C00010B5904204DD01381860FFF7A5FF09E08D
:10F7D000074C084B032018602060FFF7DBFC206813
:10F7E000FFF71AFD10BDC046A8220020B422002059
:10F7F0003020002024200020F8B5134B1B78002B6C
:10F800001FD0FFF7A9FC114E114F3268041C930062
:10F81000DD59291C05F040FD002814D1201C291CAD
:10F8200005F054FD002801D0FFF7C6FF3368201C07
:10F830009B00F95805F036FD002804D0FFF7ACFF17
:10F8400001E0FFF7B9FFF8BDA022002098220020B8
:10F850000C20002008B5054B1A68054B1868111AD2
:10F86000132902D91A60FFF7C7FF08BDB022002094
:10F870007C22002030B585B0154D281C05F011F90B
:10F88000002823D0281C05F01FF9124BC1B21970B3
:10F89000114C722916D1281C104904F097FF211C25
:10F8A000281C04F0A7FF211C684605F01CFA6846D6
:10F8B000FFF7D0FD684605F0ABF9201C084905F0BC
:10F8C0001DFAD9E7201C05F056FAD5E705B030BD82
:10F8D000182400209022002068220020E1970200D6
:10F8E000079A020008B5FFF7C5FF04F059FE044B64
:10F8F0001860FFF7AFFFFFF7E5FEFFF7FFFD08BD5C
:10F90000B02200207FB51821684604F0F9FC0028D9
:10F910000AD0064B002B07D069461423CA7CCB566D
:10F92000009801A900E000BF07B000BD0000000082
:10F93000144BF0B501261E60134B85B00360134BCA
:10F9400000254360124B1027041C836005733A1C8A
:10F950006846104908F02BF8201C3A1C69460D3007
:10F9600008F025F8E31CC522E5832584DA775023C7
:10F9700063620423A362231C2C33201C1E7005B079
:10F98000F0BDC046F0240020079A0200FB97020059
:10F9900003980200EB970200204B10B51B78041C63
:10F9A000002B12D11E4B1B78002B0ED000F02EFC2A
:10F9B00096239B01984208DD1A4C2078002803D03A
:10F9C000013400F02FFDF8E7FEE72268164B211CFA
:10F9D0001A606268154B0D311A60A268144B154805
:10F9E0001A60227B144B1A70102207F0E0FFE28BA2
:10F9F000124B1A80228C124B1A80E31CDA7F114BB7
:10FA00001A70626A104B1A60A26A104B2C341A707A
:10FA100022780F4B1A7001F0FFF910BD1524002059
:10FA2000142400200A980200B0250020B0200020F5
:10FA3000CC200020B52000203026002028260020E1
:10FA400026260020AC200020C8200020B420002062
:10FA5000C520002008B5D2B2081C111C01F018FC0A
:10FA600008BD0000022310B503600423041C43609A
:10FA70000749142004F044FD064AC5239B00D158D1
:10FA8000FF208143C0200143D150201C10BDC0463F
:10FA900005F9010000E100E008B50348FFF7E2FFC7
:10FAA0000248FFF745FF08BDEC220020BC220020E1
:10FAB00008B50368C9B21B68984708BD00230170E8
:10FAC0008360C3607047000070B50B4C0E1C01785A
:10FAD000201C151C00F018FB311C201C00F0D7F86E
:10FAE000290A201CFFF7E4FFE9B2201CFFF7E0FF22
:10FAF000201C00F03AFB70BD8423002010B50A23BF
:10FB00008022520183600223C360041C42600521ED
:10FB1000FFF7DAFF201C0021014AFFF7D5FF10BDD7
:10FB20001F3C000010B5041C034800F0B5FA201C6F
:10FB3000FFF7E4FF10BDC0468423002010B5142356
:10FB40008022920183600123C360041C426005216E
:10FB5000FFF7BAFF201C0021014AFFF7B5FF10BDD7
:10FB60001F040000F8B5114C0F1C051C0178201C67
:10FB7000161C00F0C9FA391C201C00F088F8201C63
:10FB800000F0F3FA012004F00FFD29780222201C76
:10FB900000F0B5FA201C00F05BF8051C201C00F0FA
:10FBA00057F82D0205433580F8BDC0468423002058
:10FBB00037B56D460635041C82880521FFF784FFA2
:10FBC000201C2A1C0421FFF7CDFF0023E85E3EBD68
:10FBD00038B5041CFFF7ECFF05F0FCFE051CA0681F
:10FBE00005F054FF011C281C05F0C6FB38BD70B59C
:10FBF000031C8C331B78022B01D000231BE0002355
:10FC000093421AD0051C5A352C781F2C17D8661C25
:10FC10002E70CD5C04193834A5700133F0E7051C53
:10FC20007C352C781F2C0AD8661C2E70CD5C0419EC
:10FC30005834E57001339342F1D1101C00E0181CD8
:10FC400070BD031C383337301A780378D01A7047E8
:10FC5000021C011C3732383113780978994204D9D3
:10FC6000591C1170C318D87D01E001204042704733
:10FC7000031C021C373338321B7812789A4202D99F
:10FC8000C018C07D01E0012040427047704710B5A8
:10FC9000021C8C321278031C041C022A0AD15A342A
:10FCA000227800201F2A10D89B18501C383320704F
:10FCB000997009E07C34227800201F2A05D89B180F
:10FCC000501C58332070D970012010BDFA229200C8
:10FCD00082600B4A00230832026064220261FF2224
:10FCE0008275021C37324360137053709370233255
:10FCF00013702132537013700132D1601374704746
:10FD0000D0980200F7B5071C88373B68A022D200C4
:10FD10009958A025019100219950427D284BC1326C
:10FD2000FF32ED0592005351027D0126C132FF32B0
:10FD300092005351027D331C93401A1CA123DB0017
:10FD4000EA50427D311C9140E950041C042004F02B
:10FD500039FCA223DB00E958227DD140314201D198
:10FD6000132523E0EA58637DDA403242F8D00120BF
:10FD700020E0627D012393401A1CA026114BF6055A
:10FD8000F250042004F01EFC627D0121A123914069
:10FD9000DB00F150042004F015FCA223DB00F25834
:10FDA000237DDA40131C01221342E0D1013D002DD6
:10FDB000DFD1281C3A680199A023DB00D150FEBD99
:10FDC0000D0700000C05000038B5417D234AC13104
:10FDD000A023FF31DB058900CA50017D051CC1311C
:10FDE000FF3189008835CA502B6800211A1CFC326B
:10FDF000D1601162417DA122D2009950017D184A43
:10FE0000041C99500269FA2A06D0C82149008A4286
:10FE100004D0CC22520403E0802200E0CD22D204A0
:10FE200010495A50A07DFF2809D104F0DBFBC0B275
:10FE3000A075FF2803D10C480C4904F0E5FC002113
:10FE4000A07D0A1C00F0F0FC2A68A0230521DB003D
:10FE5000D150201CFFF756FF012038BD0C070000D1
:10FE60000C0500002405000018240020AD980200B5
:10FE7000F8B5071C88373B68094EA025ED00002225
:10FE80005A51041C9A51052004F09CFB3B68012246
:10FE90009A5105225A51201CFFF796FFF8BDC04623
:10FEA000FC0F0000F0B585B0041C0191151C0293F5
:10FEB00001D100208FE0061C8836807D012A08D100
:10FEC000029A012A05D132689C235B00D1181432B2
:10FED00004E032689C235B00D1181C3200F0A4FCC3
:10FEE000336801221A603D4F00220092261C88369A
:10FEF00033681A1CFC32D16800292ED1013F002F33
:10FF0000F4D100210A1CA07D00F08EFC3368344A35
:10FF10000220995801400CD09958084398501A1C57
:10FF20000021FC329160012159619368002BFCD0C3
:10FF3000BFE79D58042635400BD0985806439E5085
:10FF40001A1CFC329160012159619368002BFCD08E
:10FF5000AFE7201CFFF78CFFABE7002FD1D00021CB
:10FF6000D160019A013D01320392A322D2009B5835
:10FF7000019AEDB21370009B0133DBB20093012DA7
:10FF80000BD1029B012B0AD132689C235B00D11854
:10FF9000A07D143200F048FC01E0002D0AD01420AE
:10FFA00004F010FB231C88331B6801221A62039A99
:10FFB00001929BE7029B012B07D131680B1CFC339C
:10FFC0009A68002AFAD000229A600021A07D0A1CBB
:10FFD00000F02AFC009805B0F0BDC04610270000D4
:10FFE000C4040000F8B50425002A4DD0041C883450
:10FFF0000D7824684E1C254965500125A560244DC7
:020000022000DC
:10000000211CFC310F6A002F27D1013D002DF7D1B3
:10001000204B0225E2582A400AD0E2581543E55009
:1000200000238B60012363618B68002BFCD010E000
:10003000E65804252E4209D0E0580543E550012337
:100040008A6063618B68002BFCD004E0FFF710FF2F
:100050001AE0022518E0032516E0002DD8D0013A59
:100060000027D2B20F62BA4204D03178074F01366E
:10007000E151C5E7012B01D0002505E08A606361ED
:100080008B68002BFCD0F7E7281CF8BD1C0500008E
:1000900010270000C4040000031C88331A68094BB1
:1000A00010B5041C8C349A4203D1052343750623F2
:1000B00002E00D2343750E230375FFF785FE012330
:1000C000237010BD0040004038B5041C202A03D81E
:1000D000002082420CD000E02022201C88300568DD
:1000E000B120C0002950211C201C1731FFF7DAFE77
:1000F000231C3733002238341A70207038BD08B5FD
:100100000123FFF7E1FF08BD031C8C3302221A70A4
:10011000533B19705A30002303707047031C8C3313
:1001200002221A70533B19705A3000230370704733
:1001300038B5051C5A352A78041C0B1C0420002AEB
:100140000DD0221C883211684F3A1078B122D200AB
:100150008850211C2A78201C3A31FFF743FF0023E6
:100160002B708C340123237038BD08B50121FFF7B3
:10017000DFFF08BD08B504490448FFF7A7FD0448A0
:100180000449FFF7A3FD08BD004000408423002080
:10019000F42200200030004008B5024804F00EFDB3
:1001A00008BDC0461824002038B50A4CA1230125FB
:1001B0000022DB006560A560E2500223D1229A4054
:1001C000A350C1229A40A3501120034904F098F98A
:1001D000256038BD001001401945020008B5FFF741
:1001E000E3FF084AA023DB0503219950064A80213A
:1001F00009069950AF2380220021DB00D205D1509F
:1002000008BDC0467C0700000C050000374A384B8B
:10021000D358384A934253D025D8374A934247D0CF
:100220000DD89D22120393425DD0344A93423CD0B4
:100230009E22D202934254D19620C00055E0304A0B
:10024000934238D006D8E120EC22800192039342F9
:100250004BD046E02B4A93422FD080221204934287
:100260003FD1294841E0294A934231D00AD8284A4F
:10027000934228D0274A934227D0274A934230D12D
:10028000E1201EE0254A934225D005D88022D204E1
:10029000934226D1224828E0224A93421ED080224F
:1002A000520593421DD120481FE0962040011CE0DA
:1002B0009620800119E0962000E0E120C00114E0C2
:1002C0009620000211E0962000E0E12040020CE0C0
:1002D000E120800209E0E120C00206E0E120000305
:1002E00003E0002001E0962000017047002000405C
:1002F0002405000000509D000050270000B01300AE
:1003000000A04E0000F07500127A000000B0AF03AC
:1003100000903A0100E0D70100F0EB0000705F07A9
:1003200090D00300A4DFBE0E40420F00044B054AEC
:10033000D050054B1A78012A01D102221A70704759
:100340001C0500000020004014240020014B002266
:10035000DA607047FC200040014B00221A627047AF
:10036000FC20004008499022D2008858012330B573
:10037000184001D08B5004E08D580424254201D050
:100380008C50181C30BDC0460020004038B5074DC9
:10039000281C04F06EFB064C201C04F06AFB291C90
:1003A000221C044804F0C4FB38BDC046342400209D
:1003B0007C2400201824002070B5154E3378002BC3
:1003C00025D0144804F090FB134B144A0021996483
:1003D0000121D16051609A6C104C002AFBD0A023FF
:1003E000DB000025E550022004F084F80C4B0C22C1
:1003F000E158A023C131FF31DB058900CA50A1219A
:10040000C9006158C131FF318900CA50357070BDD3
:100410001424002018240020FC200040002000406C
:100420000C05000008B5011C014804F0A5FB08BD3F
:1004300018240020F7B5041C08A8007884467148E9
:1004400006780196002E00D0DAE0E0277F00D6196A
:10045000A0206D4FC005B6003750E02676008F19FA
:10046000019EBF003E50694E694FF251694AB1503A
:10047000A222D200FF2B07D0E0277F00D919019FCD
:1004800089000F50B35002E001214942B150A1222E
:100490006146D200FF2909D0E0277F00391C614462
:1004A000594F890047506046B05002E0012149424F
:1004B000B1509622120294425DD029DC962292011C
:1004C000944252D00EDC96221201944248D09622D9
:1004D0005201944247D09622D200944256D19E2592
:1004E000ED0253E09622D201944240D006DCE12294
:1004F000920194424AD1EC25AD0347E0E122D201BA
:10050000944236D0444A944240D180252D043DE0A7
:10051000E1229202944234D00DDC9622520294429F
:100520002BD0E1225202944229D0E12212029442BD
:100530002CD13A4D2AE0E122D202944223D005DCAC
:10054000374A944222D18025ED041FE0E1221203B4
:1005500094421AD0334A944218D180256D0515E093
:100560009D252D0312E0304D10E0304D0EE0304D52
:100570000CE0304D0AE0304D08E0304D06E0304DE3
:1005800004E0304D02E0304D00E0304D304AB550CF
:10059000304AFF2B06D16146FF2903D11B4B0021B6
:1005A000995001E00123B350A0230422DB00F25054
:1005B000C1239B00F25884210A43F250264B0022AB
:1005C000DA601A620F4B0125022024491D7003F0E6
:1005D00097FF234BB5601B783560002B10D1214B62
:1005E0001B68002B0CD096239B019C4208DD1E4CFF
:1005F0002078002803D00134FFF714FFF8E7FEE766
:10060000F7BDC04614240020010300000020004074
:100610000C05000014050000127A000000F0EB0049
:1006200090D0030040420F0000B01300005027009C
:1006300000A04E0000F0750000509D0000903A01AF
:1006400000E0D70100B0AF0300705F07A4DFBE0E6B
:10065000240500006C050000FC2000409901020008
:1006600015240020F4240020F09802002EDF7047AB
:1006700033DF704735DF704721DF704722DF704777
:1006800023DF70470E4B0F4A022130B5995080216D
:10069000C9005D580C1C002DF9D0A121084D800225
:1006A000C9006850185906490028FBD08858022410
:1006B000A04388508022D2009A58002AFAD030BD38
:1006C00000E0014004050000094A0A4B30B501244E
:1006D0009C50141C8022D2009D58002DFAD001603D
:1006E00004490020085199580029FCD030BDC0466B
:1006F0000405000000E0014070B58901002815DA0A
:10070000C0B20F230340083B124A9B089B009B1872
:1007100003221040FF24C200DD69201C9040854365
:100720000C4094402A1C2243DA6112E082080A4BF2
:1007300003249200D2182040C023A0409B00FF2435
:10074000D558261C8640B5430C408440281C2043C5
:10075000D05070BD00ED00E000E100E0F8B5BE2231
:10076000204B52009A58002A3AD0A223A022DB0044
:10077000D205D2581C4B1D4D1B68191C1143134048
:100780001B4AC94312680B4313402B602B68002B94
:1007900005D1BE23134900225B00CA5020E000248B
:1007A000144B1B689C42F4DA0C266643124F2B68EC
:1007B000F059C340D90711D5BA195368002B03D09B
:1007C000984700280AD103E09368002B00D098478F
:1007D000BA592B68012191408B432B600134DFE72C
:1007E000F8BDC04600600040EC2400200025002039
:1007F000F8240020FC2400200425002008B5074B25
:100800001B68002B02D0FFF735FF08BDBFF34F8FE9
:10081000034A044BDA60BFF34F8FFEE7F424002055
:100820000400FA0500ED00E00D4B10B51B68041C38
:10083000002B06D0FFF724FF0120A040FFF71CFF8C
:100840000DE0C30007481B18A220C000195006493C
:100850005A500123A3401C1C024A044BD45010BD23
:10086000F424002000F001401405000004050000FD
:1008700008B5074B1A6801238340181C002A02D0D0
:10088000FFF7FCFE03E0A1220249D2008B5008BD15
:10089000F424002000F001400D4B10B51B68041C2F
:1008A000002B08D044B2201C0121FFF7E1FE201CE0
:1008B000FFF7DCFE0AE040B20121FFF71DFF1F2316
:1008C0001C400123A3401C1C024B1C6010BDC046F1
:1008D000F424002000E100E008B5064B40B21B689C
:1008E000002B03D0C9B2FFF7C3FE01E0FFF704FFFE
:1008F00008BDC046F424002038B5A022374BD205ED
:10090000D3580124C340234267D1A1421DD00029FE
:1009100038D0052953D1A0238200DB05D218E0236B
:10092000DB00D5582E4984402940D150D158E043AE
:10093000D1502C4B1A6802401A602B4B1A680240A7
:100940001A602A4B1A68104038E0A023DB058200A9
:10095000D218E023DB00D558214C81402C40D450E4
:10096000D5588024A4022C43D4501E4B1A680A4345
:100970001A601D4B1A680A431A601C4B1A688A4396
:100980001A601CE0A0238200DB05D218E023DB0004
:10099000D558134984402940D150D558C0218902E7
:1009A0002943D1500F4BE0431A6822431A600E4B83
:1009B0001A6802401A600D4B1C68204018600C4AEF
:1009C0008021C12309069B00D1500620094903F06C
:1009D00097FD06200321FFF77FFF38BD14050000B7
:1009E000FFFFFCFFF8240020EC240020002500205D
:1009F000006000405D070200F0B52D4CA025ED051C
:100A00002E590125C64087B02E404ED1294C0529CC
:100A10000CD1294B24681B6885400493274B05940F
:100A20001A68ED439446331C321C17E02568072DE5
:100A300039D80C266E43224F0135F051BE19726031
:100A4000B36025602FE00C26341C54430294029FAF
:100A50001B4C3F590397874204D10132059EB24295
:100A6000F1DB18E0934214D05E4337510196029EA9
:100A7000A719019EA4197E686660BF686760114C63
:100A8000674626682F402E402660049CBC462C40BA
:100A900004940133E1E7084A049F64461760074A5B
:100AA0001460044A1360FFF727FF07B0F0BDC0468B
:100AB00014050000FC240020F8240020EC24002071
:100AC000042500200025002008B5131C0022FFF794
:100AD00093FF08BD1423186870470000BFF34F8FC1
:100AE000024A034BDA60BFF34F8FFEE70400FA05BA
:100AF00000ED00E072DF704773DF704774DF70470E
:100B000076DF704777DF70477ADF70477CDF7047AA
:100B100084DF704785DF7047A7DF704760DF70476D
:100B200051DF704729DF704728DF70474EDF70477D
:100B30004FDF704750DF7047014B18607047C04669
:100B4000E824002008B50748FFF7D6FF002801D0A9
:100B5000FFF7C4FF044B002B02D0012000E000BFD0
:100B600008BDC046342600200000000038B5041C33
:100B700001F096FB2A4D211C281C02F0F7FC294BA2
:100B80001B68002B03D02848211C02F003FB20889F
:100B900010380A2843D804F07BFA061D3642424238
:100BA000424242252E00214B002B02D0002000E0C3
:100BB00000BF1F4B002B01D0FEF778FB1D4B002B15
:100BC0002DD0688CFFF7A6FF0121688C0A1CFFF767
:100BD0009FFF24E0184B002B01D0FEF771FBFFF7BD
:100BE000B1FF1CE0A079002819D1104B002B16D0C2
:100BF00000E000BF13E00F4B002B10D00620205662
:100C000000E000BF0BE020896289A1890B4BE488DA
:100C10001C600B4B18600B4B19600B4B1A6038BDF6
:100C2000BC25002004200020F42500200000000046
:100C3000ADF2010000000000C1F20100342B0020E1
:100C4000382B00202C2B00203C2B002008B50A4B11
:100C5000588C0A4B984206D01321FFF751FF002809
:100C600004D0FFF73BFFFFF749FFF8E7FA20400009
:100C700003F09AFC08BDC046BC250020FFFF000021
:100C800030B5041C85B0002A01D0FFF727FF1A4BAE
:100C90001B68002B2CD00B78152B29D1174D042362
:100CA00001A90293039501F073F900281DD12B6867
:100CB000DA0714D5124B134A588C0C21FFF72CFF7E
:100CC0000822031C93430AD00F4A904207D00F4AD0
:100CD000904204D0112802D00D4A9042D5D1201C58
:100CE00001F0B2F9002803D0CFE70A4B9842CCD1EB
:100CF000002005B030BDC04604200020B8250020EB
:100D0000BC250020FFFF000002300000043000007E
:100D10000134000040800000031C1948002210B577
:100D200042600270174A041C1278002A26D0012B58
:100D30000FD0002B06D0022B20D1134B1B685B6811
:100D400098471BE0114B124AD258124B1A600122ED
:100D50000EE00D4B1B681B6A98470C4B0C4AD2588F
:100D60000C4B1B68D21AC4235B009A4206D902229C
:100D7000094B1A708022094B12045A60201C10BDC6
:100D8000E0250020E8250020E020002004050000E8
:100D900000100140402B002024260020FCE100E050
:100DA0001FB5094B012409481C70FFF7BFFE6A46B6
:100DB000002313701371064B68460293054B547160
:100DC0000393FFF7B7FE1FBDE8250020190D0200B1
:100DD000204E000040420F0010B5041C01F0B8FD89
:100DE000072C08D1FFF7A4FE064B1B78002B08D078
:100DF000FFF7D6FF05E0023C012C02D8024B00228F
:100E00001A7010BDE8250020B525002008B5FFF7B1
:100E100065FE08B5FFF762FEC64B0121F0B58022E2
:100E20001960A323D205DB00D358C348DBB2BFB09F
:100E30000370022B00D1D1605160012B01D0112031
:100E400000E00220BD494822002300F0FBFC011E07
:100E500001D0FFF743FE04AC201C082206F0B0FDD1
:100E6000237801252B43201C2370FFF757FE002811
:100E7000EFD1B34800F00AFD0028EAD1B14800F0F4
:100E80000FFD0028E5D1B04AB04BB14E1A60306872
:100E9000B04AB14BB14C1A60002802D00378002B45
:100EA00001D100230DE0AE4906F04CFE002801D12F
:100EB000257007E0306806F057FE0223042800D0B2
:100EC00003232370A74F386806F04EFEA64DA74BAC
:100ED0002870186806F048FE2378A549033B5A1E7F
:100EE00093412A78C0B208709B001F2A01D91F22A3
:100EF0002A702A780026B24201D0961CF6B200244D
:100F0000A04201D0041DE4B20633F318E318DBB2AB
:100F10001F2B12D91F3BDBB200280AD0834205D910
:100F20000124201A1B18DBB20C7002E0C01A0870F2
:100F30000023002A01D0D31A2B708E4B00229A5620
:100F4000143201DAEC221A7000229A56042A01DDCA
:100F500004221A70884B1A68132A01DC14221A60C2
:100F60001968A0229201914200DD1A6001F094FDFF
:100F7000002800D06DE701AC201C00F0EDFE002839
:100F800007D00123201C237000F0E6FE002800D0CB
:100F90005FE7684608AC00210522253006F010FD09
:100FA000637901221343E12213400C210B432022D9
:100FB000934363710723A371704B1026012270487D
:100FC000211CE6710893227100F036FF002800D042
:100FD0003FE7012302A8334339682A780370FFF7FB
:100FE00095FD011E00D034E7664F674D3E60674EA9
:100FF000674A182306AC3360642313602860082214
:10100000201C06F0DDFC3B68614923803368201C0E
:1010100063802B68A3800B68E380FFF775FD0028D1
:1010200000D016E7534C00202056FFF76BFD002838
:1010300000D00EE7574C201C02F0D2FA061E00D05A
:1010400007E7554B1B68002B18D00BAD311C0C2249
:10105000281C06F0B5FC514B01225148291C6B603D
:10106000AE602A8001F03EFF002800D0F1E64D4836
:1010700002F000FA424B187802F002FA4A4B1D685F
:10108000002D09D0494B281C1978494B1A68494B47
:101090001B78FFF72FFDB5E0474B1F78002F26D0B8
:1010A000464B684614AC464910225230238006F065
:1010B0007EFC444B0EAE1B8810945BBA6382424B9D
:1010C000291C1B8830225BBAA382404B1B78A37576
:1010D0001AAC4C233380201C1723B38006F070FC1D
:1010E00004232570E3706662201C291C85E0638858
:1010F00003AE3380237826AC3022B370391C201C19
:1011000006F05EFC174B32AD1B68281C1B78391C9F
:101110005A1E93415B00237030220623E370A770B0
:1011200006F04EFC0D4B1A780123032A50D12B8276
:101130006E614FE0F4240020AC25002064250020DF
:101140006D0B0200D90D020025130200A82000201B
:10115000B025002069130200A4200020AE25002045
:1011600095990200B0200020302B0020CC200020D8
:10117000282B0020B4200020C8200020810C020071
:1011800031260020342B00203C2B0020382B00205F
:101190002C2B0020BC250020042000201D33020041
:1011A000F42500204D0C02002C260020B425002040
:1011B000EC250020AD25002030260020021500007F
:1011C000B52000202826002026260020AC20002064
:1011D00023826661264B1978002907D011AB9980CC
:1011E00024490020096818801391636222496160D4
:1011F0000021032A00D1291C201C00F08DFA0028B0
:1012000000D026E61D4C1822201C002106F0D8FB39
:101210001B4B18881B4B1A7800239A4207D11A4B94
:101220001B685A4253410233632800D864200025CA
:1012300023706560257206F0EDF90C4B0A4A04F044
:1012400091FF04F079F805212082104A012065827F
:1012500001F020FEA84200D0FBE5FFF773FC3FB091
:10126000F0BDC046C046C046000000000000E43F9C
:10127000282B0020CC200020B42000203426002081
:10128000C8200020C5200020EC250020390B0200DA
:1012900010B5021C88B00C1C202900D92024E4B20F
:1012A000111C6846221C06F082FB6946221C044879
:1012B00002F0F4FA43425841C0B208B010BDC04633
:1012C000BC25002007B501A8FFF72AFC052807D098
:1012D000002801D0FFF702FC0198FFF77DFDF2E73F
:1012E00007BD000008B5044B1B78002B02D0FFF7A8
:1012F000E9FFF8E708BDC046B525002070B5084DE8
:1013000000232C78E4B29C4208D101262E70FFF70E
:101310000BFC331C002801D02C70231C181C70BD42
:10132000B525002008B5FFF7E9FF002801D0FFF739
:10133000D9FF08BD70B50A4D00262C78E4B2B4423E
:101340000BD1084B01261960321C191C2E70FFF7B7
:10135000E9FB002801D02C70261C301C70BDC04653
:10136000B5250020F025002008B5FFF7E3FF002891
:1013700001D0FFF7B7FF08BD72DF704779DF704714
:101380007DDF704765DF7047F0B587B00C9F061CA6
:10139000387800240391029200930190251C338831
:1013A0009D4238DA7268A900511805A8042206F097
:1013B000FEFA694605A813310022FFF7E3FF002873
:1013C00032D16846C37C02998B4220D1624262418D
:1013D0003B78520059188A181F2A1ADC002C06D1B3
:1013E0009A1C3A7001330398009ADBB2D0540099EA
:1013F0006C463A7813348A1805A8211CFFF7C2FFFF
:10140000002811D13A7823780124D3183B70013594
:10141000C5E70C2008E00020844205D03B78019A03
:10142000013B00999B1A8B5407B0F0BDF7B5089E9D
:10143000171C00960222051C1C1CFFF7A5FF0028A4
:1014400006D10096281C391C1022231CFFF79CFF94
:10145000FEBD0000F0B500231370037887B0061CB2
:101460000D1C141C002B03D1B378002B47D027E0B0
:1014700043780C201D2B00DD46E16F4616371D23F7
:10148000881C391C3B80FFF77BFF002800D03BE124
:101490003378022B03D13B8809221D2B07D973789F
:1014A000002B02D008221D2B01D93B880822DBB279
:1014B000591C29706A70227802329B182370D3E776
:1014C00023780C201B2B00DD1EE16F461637381CDD
:1014D000FFF754FF002800D016E1237839885A1C02
:1014E00022700322EA5423785A1C22701922EA54EB
:1014F0002378EA1811700233090A51702370F378C7
:10150000002B0ED023785A1C22700222EA54237832
:101510005A1C22700122EA5423789A182270F27819
:10152000EA547368002B12D01A7823780C201C2BF5
:1015300000DDE9E0591C21700221E9542378591C8F
:1015400021700A21E9542378591C2170EA54338907
:10155000002B03D1338A002B16D00AE0301C0094F4
:101560000830022106222B1CFFF760FF0028F1D073
:10157000CAE0301C00941030032107222B1CFFF717
:1015800055FF002800D0BFE0338B002B0AD0301C61
:1015900000941830142115222B1CFFF747FF002858
:1015A00000D0B1E0336A002B42D021780C200A1C15
:1015B000063202911F2A00D9A6E0198807200529C2
:1015C00000D8A1E0514A8F18514ABFB2974200D8C3
:1015D0009AE05A88052A00D896E04C4FBF18BFB24F
:1015E000BC464B4FBC4500D88EE04A4FB94204D0B0
:1015F000BA4202D0914200D986E0029A02990132A1
:10160000227005226A542278511C21701221A9549B
:1016100022781888A9180870000A4870901CC0B277
:10162000207059882B1819700432090A59702270D9
:10163000776A002F28D03A792378911C981CC9B278
:1016400041180C201F295FDC591C03322170EA5419
:1016500023785A1C2270FF22EA5423783988EA182A
:1016600002331170DBB2090A51702370BA88002A64
:101670000AD0B9680720002946D0E81806F097F983
:10168000BA882378D3182370371C2C3703973B78FC
:101690000020834238D0B16A814201D0029021E01B
:1016A000072031E0029A0C275743B36ADF193A79D1
:1016B00023780332591C2170EA5423785A1C227073
:1016C0001622EA5420783A882B1802301A70C0B2D9
:1016D000120A5A702070BA88002A09D1029B01337D
:1016E000DBB20293039F3B78029FBB42DAD80AE049
:1016F000B9680029D4D0281806F059F9BA88237897
:10170000D3182370EAE7002007B0F0BD7FF3FFFF96
:101710007DF30000FFFF0000F0B593B06D466E460C
:101720000023063507360C1C2B703370984204D00A
:10173000C3785A070FD407201DE0071C002C03D0E4
:10174000E378002BF7D10EE0221C29783378381C7F
:10175000FFF712FE0FE002A92A1CFFF77BFE02AF83
:101760000028EBD007E0321C201C0AA9FFF772FE0C
:101770000AAA0028E9D013B0F0BD2EDF704751DF70
:10178000704710DF704761DF704708B5081C111CF7
:10179000FFF73FFB08BD0000F0B5254B85B01B7877
:1017A000002B42D0234E244F3268544254413A68B1
:1017B000E4B255425541EDB2002C34D103A8FFF7F5
:1017C000DEFF05280AD0002804D0211C221CFFF7C8
:1017D0001DFB04E003983368984700E00124002DC6
:1017E0001ED1164B03A91B880B80154B1B68181CB8
:1017F0000193FFF7C8FF051E052D0BD0002805D06B
:1018000000210A1CFFF702FB002504E001983A685A
:10181000904700E00125002CCED0002DCCD004E074
:10182000002C02D1C8E7002DDBD005B0F0BDC046CA
:101830004C26002054260020582600204E2600204A
:101840005026002038B5041C0720002913D08D072E
:1018500011D1094801600949201C0A80084A094938
:101860001360FFF78EFF002805D1074B01221620D9
:101870001A70FFF782FF38BD502600204E26002048
:101880005C2600208B1702004C260020002803D085
:10189000024B1860002000E00E2070475826002000
:1018A000002803D0024B1860002000E00E20704793
:1018B0005426002008B5074B1B68002B07D098471B
:1018C000002806D000210A1CFFF7A0FA01E0FFF76C
:1018D00063FF08BD5C2600207FDF704782DF704712
:1018E000A7DF7047A9DF7047AADF70470020704765
:1018F000002070470020704700207047002070478C
:101900000020704700207047F7B5041C0F1C6A4682
:101910008178224801F086F900283DD162780C21B7
:101920004A431F4B9A18927A530605D4022F03D0CC
:10193000012F03D11B4D02E01B4D00E01B4DA17890
:101940001C2671431A4B68465918321C0023A847BD
:10195000002813D1022F1FD063780C225343104A62
:101960004021D3189A7A68468A439A726178114B5B
:101970007143321C5918331CA84701E0022F0BD0C9
:1019800023780C2253430C4A6846D3189A7A0B4B9F
:101990009200D358211C9847F7BDC046BC270020B1
:1019A0009C260020752C0200F52C0200ED18020088
:1019B000A82600206C270020AC2700209C9902005C
:1019C000F7B50190437824215943264A264F5018F1
:1019D0004468002C0FD00C2058433818807A45B248
:1019E000002D07DA450605D40E1C0836A5B2961957
:1019F0008C5802E00024251C261C0C225343FB18A3
:101A00001889311C2A1C231CFFF76CFF0B280BD1F3
:101A1000019A311C53780C225343FB1818892A1C55
:101A20000123FFF75FFF0124002800D00F48012C9D
:101A300017D1019D0C216B780D4A4B43FB18188977
:101A4000FFF74EFF00280CD00A4B984208D0082818
:101A500006D0094B984203D0112801D0002000E0A5
:101A60000248FEBD882700209C26002041800000FF
:101A7000FFFF0000023000000430000008B5FFF74F
:101A80009FFF08BDF0B58BB06D460A351A23019053
:101A900000912B804B780C214B43234A03A9D31888
:101AA00018892A1C0323FFF71FFF002839D1009B48
:101AB000242658781D4F7043083003A938182A8807
:101AC00005F066FF00993C1C4B7800280DD10C22D4
:101AD0005A4315498A18917A0222114021D1734341
:101AE000321CF81805F06CFF1BE05E43BE197268EB
:101AF000002A01D00E4F00E00E4F2426734303222C
:101B0000E2502A88E11808334A60E01803A905F07A
:101B10004EFF009A0198517838237143321C6118A6
:101B2000B84700200BB0F0BD9C260020882700207D
:101B3000F52C0200752C020008B5FFF7A3FF08BDC5
:101B400070B5031C487824246043094D0E1C2818E6
:101B5000191C221C382301F00DF9002806D17378D6
:101B60005C432D196B68013300D1686070BDC046BD
:101B70008827002008B5FFF7E3FF08BDF0B51C1C5F
:101B80004D4B161C1A6893B0019000911F1C002A3F
:101B900000D18FE01898742800D98BE003ABFF22A6
:101BA000002569465A709A70DA701D700D760B9494
:101BB0000A90A9B2414804AA01F034F8002809D1DA
:101BC000019804A9082205F0E3FE002802D103AB26
:101BD0009D7002E00135072DEBD103ADAA78FF2AF5
:101BE00068D0009806AB042806D1189C2022742CDB
:101BF00000D040221A7046E03149611AC32910D83A
:101C00003049002E04D101200C689040044251D08C
:101C100001209040021C08689043202208601A703E
:101C20003EE02949611A1B2908D820221A70002396
:101C30006B700CAB0B9318230A9331E02348211AE5
:101C400023290FD8302369460B7600236B700123BC
:101C5000EB701F4B997A0223194021D1242205F001
:101C6000AFFE1DE0402119701A4B9C420BD01A4B5D
:101C70009100CB58A3421DD1154BDB7A93420FD173
:101C800000236B700CE006AB1A7803210A431A702C
:101C900009AB0793281C3B6806A9321C984709E04A
:101CA000009C06AB032C02D11A780121EEE71A78CA
:101CB0000221EBE713B0F0BDAC270020BC270020C9
:101CC000A8260020B82700206C27002088270020A5
:101CD0009C260020CC9902006026002070B51C24B0
:101CE00044430F4E051C30190021341906221130CF
:101CF00005F066FE201C0021102205F061FEFF2386
:101D00002374A37601235B422383064B01221968C7
:101D1000AA4091431960044BAD000022EA5070BD07
:101D2000A8260020B82700206026002037B581B201
:101D3000051C6A46074800F075FF041E08D1684676
:101D4000742101F05FF8041E02D1281CFFF7C6FFC2
:101D5000201C3EBDBC270020F0B5051C85B0002826
:101D600055D02C4B00242C481C605C729C720123C3
:101D700083725B42211C07220381C37205F020FE9F
:101D80002648211C242205F01BFE201CFFF7A6FF7D
:101D9000234BFF22E2540134072CF6D16A46214F2F
:101DA00074239380204B6846391CD480009300F044
:101DB000BDFE3E1C00282BD11C4B2C7801221A7032
:101DC0001D1C002C1AD1A1B2301C02AA00F02AFF5F
:101DD000071E0CD11C22131C6343154802A9C0180E
:101DE0003B1C00F0C7FF002804D02F7010E0002338
:101DF0002B700DE00134072CE5D109E06A46D1884B
:101E00009388381C594389B200F0FCFF00E0094870
:101E100005B0F0BDAC2700209C26002088270020BC
:101E20007C260020BC2700207D1B0200832600208A
:101E3000A82600200E800000F8B5174B071C1B7861
:101E40000D1C002B22D0002822D0002920D00B68A6
:101E5000002B1DD0114C2668002E1BD1201C08C061
:101E60000531052205F0A3FD207A2B790121884355
:101E70000222A3721043042398432072E0790143A5
:101E80000A439A43E271301C3E7004E0044802E0C9
:101E9000044800E00448F8BD83260020AC27002059
:101EA000088000000E800000048000007FB52D4BEC
:101EB000051C1B780C1C002B50D000284AD0002990
:101EC00048D08A68002A45D00378002B46D1264B9B
:101ED0001B68002B42D0817806293DD81C234B4338
:101EE000224AD3189B7EFF2B36D043780C225343D3
:101EF0001F4AD3189B7A1A0730D563680720032B33
:101F00002DD91C4802AA00F08DFE002827D101A877
:101F100002A90422602300F02DFF002802D1019ABB
:101F2000013201D1144E00E0144E211D02A80422FA
:101F30006023B047002812D102A8A16810226423B0
:101F400000F0D8FE00280AD1AA78A1680C4B9200B4
:101F5000D15004E00B4802E00B4800E00B4804B00D
:101F600070BDC04683260020AC270020A826002094
:101F70009C260020BC270020752C0200F52C0200B6
:101F8000602600200E800000108000000880000005
:101F90001FB5244B0C1C1B78002B3CD0002838D0DC
:101FA000002936D00378002B35D11F4B1B68002B3E
:101FB00031D08378062B30D81C225A431B498A180B
:101FC000927EFF2A29D0A168194A9B00002902D1DC
:101FD000D358A36000E0D150817802AA154800F0E0
:101FE00021FE00281CD101A802A90422602300F0D0
:101FF000C1FE002813D1019B013310D0A06802A9B3
:102000001022642300F0B6FE002809D1019B636012
:1020100006E0094804E0094802E0094800E00948F0
:1020200004B010BD83260020AC270020A826002085
:1020300060260020BC2700200E80000008800000E1
:1020400010800000408000001FB51D4B041C1B7851
:10205000002B30D000282CD00378002B2BD1194B2B
:102060001B68002B27D08178062926D81C234B43D8
:10207000154AD3189B7EFF2B1FD0144802AA00F0EC
:10208000D1FD00281AD1602301A802A9042200F082
:1020900071FE019B013311D002A80D490422602377
:1020A00000F028FE002809D1A2780A4B9200D050F7
:1020B00004E0094802E0094800E0094804B010BD06
:1020C00083260020AC270020A8260020BC27002063
:1020D000CC990200602600200E80000008800000DD
:1020E000108000000A4B1B78002B0ED000290AD06C
:1020F000002808D00078002807D1064B1B68002B69
:1021000003D0087002E0044800E004487047C0466D
:1021100083260020AC2700200E80000008800000ED
:10212000194A031C127810B5081C002A28D0002B6D
:1021300024D0002922D01C78002C21D1134A126807
:10214000002A1DD09A78FF2A0AD15B78FF2B19D07C
:102150000C214B430E49C9188B7A9A0712D508E017
:102160001C214A430B49022389188C7E1C4009D14B
:102170001031072205F01BFC201C04E0064802E099
:10218000064800E0064810BD83260020AC2700204A
:102190009C260020A82600200E8000000880000059
:1021A00005800000F0B5244B8BB01B78051C0C1C7F
:1021B000002B3CD0002838D0002936D00378002BE3
:1021C00035D11E4A1268002A31D08278062A30D8CA
:1021D0001C2672431A498A18927EFF2A29D0E3608E
:1021E000827803AF72438A182261164A6361626083
:1021F000A3602760817801AA134800F013FD00282E
:1022000018D1381C01A9321C331C00F0B3FD002882
:1022100010D1E060AB780B495E43094B60619E19B9
:1022200026616160A060276004E0084802E0084879
:1022300000E008480BB0F0BD83260020AC2700204A
:10224000A826002084260020BC2700200E80000045
:10225000088000001080000013B5041C81786A46D5
:102260000B4800F0DFFC002810D160781C23584395
:10227000084A694610181A1C00F07CFD064B684697
:102280009A7A064B9200D358211C984713BDC0463A
:10229000BC2700206C270020AC270020AC9902004E
:1022A000F0B5C14A8DB01278FF23061C0193002AB5
:1022B00000D1A8E1BD4A1168002900D1A3E102AD17
:1022C00003AF6B70AB70EB70031D7B602A233B8107
:1022D000338800202870B64C102B21D0A27AB18808
:1022E000900707D5B348814200D13EE1208988425A
:1022F00000D13AE1172B00D1A5E007D8132B52D01B
:10230000142B2BD0112B00D07DE10EE01C2B00D123
:1023100011E1522B00D106E1182B00D073E1DDE072
:10232000A37AD90700D525E16DE10223101C98435B
:10233000A072110707D543B2002B0BDA281C00212D
:10234000FFF7E2FA06E0A878FF2803D0FFF7C6FC03
:10235000FF23AB701023A3721223EDE0E37A964FB4
:10236000FF2B15D1F18900231C2058433818008B0E
:1023700088420AD1082101930A43DBB2E372A272B8
:10238000281CAB70FFF768FF02E00133072BEBD18D
:10239000E37A0021FF2B00D08849B0883A1C002343
:1023A000FFF79CFA2FE13B7004231A43E37AA272F1
:1023B000FF2B22D100271C2078437F4A1018837EF0
:1023C000FF2B15D12278031C1833022A07D0FD22D7
:1023D0009A70211C0722103005F0E9FA01E0FE2274
:1023E0009A7001AB1F700198C3B2AB70E37210E03A
:1023F0000137072FDFD1724C0CE0724816231A22E6
:10240000083000213B7005F0DBFAA37A4022134329
:10241000A37200240021664B0991DB7A1C225343EE
:10242000654A0B91D3180A93644B604A069307914F
:102430000891B088043206ABFFF74EFA002800D0AE
:10244000E1E0221C7AE059480121437A8B43437230
:1024500004239A431423A2723B70B379002B04D057
:10246000E07AFFF763FCB27968E0F379590764D545
:10247000AB78FF2B61D008210A43F17AA272890759
:10248000C90F012906D11C225A434B488218907E5D
:1024900088439076E27AFF2A4FD02178464A1C265C
:1024A00002290CD05E439619301C07221030211CE3
:1024B00005F07DFAB37E02229343B37609E07343BD
:1024C0003E49D318498A1A1C19839B7E01218B43EC
:1024D0009376281C0121FFF717FA2EE0B379112B10
:1024E00013D1130711D537481A220830002105F0FF
:1024F00067FA16233B70A37A602213432B48A3721A
:10250000437A02221343437217E080235B421A434B
:10251000264915233B70A2728A7A2B4B9200D3581E
:10252000281C984709E0214B281C9A7A264B9200D8
:10253000D358984767E013233B7000221B4803AC35
:102540000368211C281C98472378122B5BD118485C
:10255000837A012B57D0012383725B420381C372BC
:102560000021072205F02CFA4DE0E17AA970002144
:102570006970BFE6112300213B706970B388B71DF5
:1025800023810223A372201C391C072205F00FFAB5
:10259000337D0026DA071ED50C4A5B08D35CFF2B7F
:1025A00025D0019323E0C04683260020AC270020DD
:1025B0009C260020FFFF0000A82600206C2700209A
:1025C0004380000088270020BC9902007C26002060
:1025D0000136072EB1D01C2373430C48391C103030
:1025E000C018072205F0D4F90028F1D10196019A0C
:1025F0000821D3B2A27AE3720A43A272281CAB70FC
:10260000FFF72AFE99E70DB0F0BDC046A8260020CE
:1026100030B5002912D00A78002A11D10A4B1B6864
:10262000002B0DD0FF23094C8B7025890523854293
:1026300007D14A70E37A8B70131C02E0044B00E070
:10264000044B181C30BDC046AC2700209C2600203F
:102650000E8000000880000008B5074B1A68802330
:102660005B05002A06D01969F02089B2800202F0C9
:1026700067FD00E0586908BD0420002029DF70478D
:1026800028DF704737B58B680D78021C1C01081CC9
:102690000B6949880830009102496458291CA047F9
:1026A00037BDC04690280020F0B5504C85B002934D
:1026B0002378051C0191161C002B06D1029B1343A5
:1026C00001D1022300E00123237023780320013B82
:1026D000052B00D987E0181C02F0DAFC031827400C
:1026E0005F73FFF7B9FF80235B051D6919691A69DC
:1026F000431EA8B25843019B89B292B25943920833
:10270000FFF7BCFF022300286CD06CE00198FFF7B4
:10271000B7FF002867D10323002E63D1029A002A55
:102720001AD12B78042B36D15BE080277F053B69DB
:102730000393FFF791FF039A396993B2019A013825
:10274000534389B24143321C181CFFF797FF0028FE
:1027500049D1029B002B1BD0042343E080277F0537
:102760003B69019A9BB253436A88B6009B189B1938
:102770000193FFF771FF3969013889B241436B88D2
:102780000198F6187118029AFFF778FF00282AD1ED
:102790002B78042B13D0052324E080235B051869D4
:1027A000019A80B250436A88B300181829699208C8
:1027B000FFF764FF002816D1029B1E4311D00623A9
:1027C00010E0FFF749FF80235B051A691969431E72
:1027D00090B2584389B202F065FCFFF751FF002820
:1027E00001D10723237005B0F0BDC046A928002001
:1027F000F8B5324E142233785343F3181C1D1B795D
:10280000E568042B18D0052B39D00F20022B54D1AA
:102810002B4B62881888236980021918A388121A22
:102820005D19284B28189A4201D8920801E08022AD
:102830005200FFF723FF3CE0A26823491301CB18A5
:10284000198958895B6880277F05AB4203D14143D2
:102850006388994201D0022A0AD13969281C89B2B9
:1028600002F020FC164B1B88C018FFF709FF20E080
:102870003969281C89B202F015FC011C09E0802787
:102880007F053969281C89B202F00CFCA388011C61
:102890005D193A693B6992B2481C4A439BB2434373
:1028A0006088AA1A45195B1B92089B08201CFFF739
:1028B000FBFE002801D10123B370F8BDC42700201E
:1028C000AA280020FF03000090280020F8B5144D2E
:1028D000061C6C7806A8078804200A2C1FD02878CC
:1028E0002418E4B2092C01D90A3CE4B21420444370
:1028F0002C1962610020221C267160710C3241C9C2
:1029000041C2E3802781AB78002B01D0002003E097
:10291000FFF76EFF1128F9D06B7801336B70F8BDAB
:10292000C427002008B5094B00205A7882420CD0F9
:102930009B78834209D1FFF75BFF002805D0031C79
:10294000113B5A1E93415B42184008BDC42700202A
:10295000F0B54D4987B08B780C1C002B00D190E06E
:102960004A4D00232A788B70082A06D1022801D10B
:102970002B7067E0464A137064E0022802D00328F7
:102980006AD07EE00D78142068430495414D081804
:102990002E88011D01360079B6B2B4462E80009013
:1029A00002280AD16746BE0248880196019FF517A2
:1029B000C60F87426E41059608E00098052804D1AD
:1029C000D51F6E427541059301E005931D1C009BC8
:1029D000042B0AD1D31F5842434148886746BE02A0
:1029E000864205DB5042424103E000231A1C00E00E
:1029F0000022002D07D1002B05D1002A03D1059814
:102A0000012318421ED0214A224D002313702B802F
:102A10006378013B6370049B0133DBB2092B01D95E
:102A2000049B093B00202370FFF72CFE049E142317
:102A300073430022E31801201A71DA80D8601A610A
:102A40005A611A81FFF76EFF00281AD023781421EB
:102A500059436418211D12E00B7814245C430C19AF
:102A6000043463780D200133DBB26370032B05D08F
:102A7000FFF7BEFE002804D0112802D0211CFFF76A
:102A800001FE07B0F0BDC046C4270020A9280020E1
:102A9000A8280020AA280020F8B51D4A1D4E0023B2
:102AA000138033707370B3701A1CB318002401259F
:102AB00014321C71DC80DD601C615C611C81C82AE1
:102AC000F3D1154B80271C80FFF7C6FD7F053A69BF
:102AD000831E90B25843114B08221860104B1C60A3
:102AE0001C819C815C810F4B1A70FFF7B5FD3A6920
:102AF0003969431E90B2584389B202F0D3FAFFF706
:102B0000BFFDA04202D1084BB5701D70F8BDC04694
:102B1000AA280020C4270020A0280020A4280020E4
:102B200090280020A9280020A8280020F0B5394BC3
:102B300085B01B78051C02910820002B68D0002D61
:102B400065D0002963D02868002860D080246405FF
:102B50002269AB8892B2934201D9072058E00F2B2B
:102B6000FBD9EF88002FF8D05F432B4E31680191DD
:102B70007F18FFF771FD2269431E90B258438742C8
:102B8000EBD8AE88EF88321C7A43236903929BB25C
:102B90009A4207DD2069311C80B202F0C7FA89B27F
:102BA0000029DAD1032131408C46D6D11B4B0420B9
:102BB0001B88012B2CD002980199194C1A014160F5
:102BC00003602D68A01841601349155106814781A3
:102BD00003980E68614680256D052F690131BFB2EB
:102BE00089B2B84203D92F69BFB2C01B00E00020F0
:102BF0002D69ADB27519002801D02E1CEBE7A21883
:102C0000054E9181054A01333560138000E00E20A6
:102C100005B0F0BDA8280020A4280020A02800208E
:102C200090280020114B30B51C780823002C1AD0B6
:102C3000002815D0002A13D00368002B12D10C4CA9
:102C40002568002D0ED025894068694309186089E0
:102C5000454360682D18A94204D21360516002E018
:102C60000E2300E00723181C30BDC046A828002012
:102C700090280020F0B5141C1C4A051C127885B061
:102C80000F1C0820002A2ED000292BD0002D29D07F
:102C900029680720002926D1154E3268002A22D043
:102CA0006968039132897189766851438C4603992A
:102CB0006644B14217D2002C15D0944213D8E618BE
:102CC000964210DC0322102017420CD113420AD185
:102CD000114208D10093291C3A1C231C0220FFF743
:102CE000F5FD00E00E2005B0F0BDC046A82800208C
:102CF00090280020F0B5141C1C4A051C127885B0E1
:102D00000F1C0820002A2ED000292BD0002D29D0FE
:102D100029680720002926D1154E3268002A22D0C2
:102D20006968039132897189766851438C460399A9
:102D30006644B14217D2002C15D0944213D8E6183D
:102D4000964210DC0322102017420CD113420AD104
:102D5000114208D10093291C3A1C231C0520FFF7BF
:102D6000B5FD00E00E2005B0F0BDC046A82800204B
:102D700090280020F0B5161C204A85B012780290E9
:102D80000D1C0824002A36D000292FD000282DD071
:102D90000C68002C2CD11A4F3A68002A28D04A68B7
:102DA00078893989484384467868844462451FD2CB
:102DB000002E1DD08E421BD8F018884218DC0298D5
:102DC0000321084216D10B4214D11140039111D1B5
:102DD0009918321C04F0EBFD2A6800961301FE5886
:102DE000281C0321039A029BB04704E00E2402E052
:102DF000072400E01024201C05B0F0BDA828002006
:102E000090280020154B73B51B78041C0D1C08205E
:102E1000002B22D0002C1FD022680720002A1CD1B2
:102E20000F4A1368002B18D05668118952896368BD
:102E30004A439219934210D210209A070DD1981B41
:102E400002F074F907200A1E07D100912B1C211CE7
:102E50000420FFF73BFD00E00E2076BDA8280020EF
:102E6000902800202EDF704732DF704733DF704735
:102E70004CDF704708B5054B01201A785040187098
:102E8000034B1B68002B00D0984708BDB0280020DA
:102E9000AC28002038B50C4B051C15200C1C1A6002
:102EA000FFF7E2FF00280ED11520291CFFF7DEFFF7
:102EB000002808D11520FFF7D5FF002803D10320F3
:102EC000211CFFF7D5FF38BDAC280020A0DF7047DC
:102ED000A2DF7047A5DF7047A6DF7047A8DF704705
:102EE00063DF7047F0B599B002900391002800D1DC
:102EF0000BE1002900D108E14A680E24002A00D124
:102F000004E101235B4203808249102208A804F0F7
:102F10004EFD814B694606AD08A81A312B80FFF79C
:102F2000DFFF041E00D0F1E0029A01200432291CC8
:102F3000FFF7CCFF041E00D0E8E0AB78029A11AD99
:102F40009371211C1C22281C04F03AFD2B780422CA
:102F50001343029A6C60EC602C616C61AC612B7065
:102F600093796A4693776D4B05AF9383211C0322B7
:102F7000381C04F025FD00233B700122102313436D
:102F80007B70BB78062293430222134308229343AB
:102F900010220CAE934301221343211C1422301C37
:102FA000BB7004F00DFD07AB0C931422029B34811F
:102FB0007481B281346177609888291C321C08338F
:102FC000FFF786FF041E00D0A0E0211C1C22281C55
:102FD00004F0F6FC2B780822134310221343029AC4
:102FE0006C60EC602C616C61AC612B7093796A460B
:102FF00093774B4B211C9383381C032204F0E0FC95
:1030000000233B707B780F229343012213430F224E
:103010001340102213437B70BB7806229343022295
:103020001343082293431022134301221343211C0C
:103030001422301CBB7004F0C3FC07AB0C931723A5
:10304000B381029A029B34817481346177609088E5
:10305000291C321C1033FFF73BFF041E56D1211CE4
:103060001C22281C04F0ACFC2B7802221343029A89
:103070006C60EC602C616C61AC612B7093796A467A
:103080009377284B211C9383381C032204F098FC6F
:103090003B780F229343012213430F221340102247
:1030A00013433B7000237B70BB78062293430222BC
:1030B0001343082293431022934301221343211CFC
:1030C0001422301CBB7004F07BFC02223281B281DE
:1030D00007AB039A3360029B7481326177609888F2
:1030E000291C321C2033FFF7F3FE041E0ED1039A75
:1030F000029B52689A62039A9368002B01D0029A4D
:10310000D362094B01221A7000E00E24201C19B072
:10311000F0BDC046D0990200301500003215000005
:103120003115000034150000B1280020F0B5051C51
:1031300087B0002824D00488134B08209C4220D05C
:10314000124B1B78002B1CD0114E02AC1023717057
:103150006F460321F980B270201C1A1C00213370C5
:1031600004F02EFC2B8A063723800123A3702888C5
:103170000023211CA380A760E660FFF7ADFE00E0FE
:103180000E2007B0F0BDC046FFFF0000B1280020B0
:10319000B2280020F0B5041C89B00E1C002800D114
:1031A000AFE0002900D1ACE0826A002A00D1A8E09B
:1031B0000B88112B18D004D8102B00D0A1E08B88DD
:1031C00014E0502B02D0512B12D09AE0C988038909
:1031D000994200D095E004A908230B70F38B2036A8
:1031E0000B718E6090478CE001235B42238088E066
:1031F0008A79022A00D084E00A89038A9A4200D0A0
:103200007FE08B7A043B022B00D87AE001AD0222EA
:1032100004AF3A7000210822281C04F0D1FB0223DD
:1032200000AA2B806A6000232088A18A2A1C6B8058
:10323000FFF750FE002804D0E36A002B05D0984722
:1032400003E06A461378DA0707D4FE23FF332088A9
:10325000391CBB80FFF742FE4DE0B880391C208846
:10326000FFF73CFE002846D1F31CD97F481E0728F3
:103270003DD801F00DFF040E1B1D1F213A23002332
:103280002B70338C012B02D8201C012108E0012374
:1032900008E001232B70328C9A4203D8201C0221B3
:1032A000062226E023362B71AE6019E0022316E0D9
:1032B000032314E0042312E0052310E0338C022BD7
:1032C00002D8201C082113E0731DDB7F0436F27F37
:1032D0001B021343AB8001D1072300E006232B70B0
:1032E000A36A201C291C98470BE00923F7E7201C40
:1032F0000322FFF71BFF002803D0E36A002B00D056
:10330000984709B0F0BDAADF704744DF704711DF6E
:10331000704713DF704700DF70477047F0B50D78D6
:103320008DB0002D00D08FE04D4C07886A460632E4
:103330000823211C138034310123381CFFF7E3FFDD
:10334000484B1B689847B120FFF7DFFF002803D0E8
:10335000291C2A1CFDF75AFDFFF7D9FF002803D0CE
:1033600000210A1CFDF752FDF0208002FFF7D1FF7B
:10337000002803D000210A1CFDF748FD3A4E002327
:10338000381C311C0293FFF743F9051E46D136481D
:1033900006A9FEF707FF071E2DD10A9D0722291C4B
:1033A0001031201C04F003FB291C1022E01D04F046
:1033B000FEFA069D201C291C1122183004F0F7FA91
:1033C000201C291C2A3012310A2204F0F0FA201C99
:1033D000FFF7A1FF002803D0391C3A1CFDF716FDAA
:1033E000012302930423049303A902AB1E4805930F
:1033F000FEF75CFD0CE0301C211CFEF791FE00285E
:1034000003D0291C2A1CFDF701FD201CFFF783FFB8
:10341000002803D000210A1CFDF7F8FC134B802183
:10342000C022C903520099501968002301229A4012
:10343000114201D00E48C2670133202BF6D1F02093
:10344000800200F02FF809E001210322FFF76EFE51
:10345000002803D000210A1CFDF7D8FC0DB0F0BDF8
:10346000BA280020D0200020F628002000E100E04B
:1034700004E100E0014B18607047C046D0200020F6
:1034800007B56B46D8710733181C0549FEF72AFEAD
:10349000002803D000210A1CFDF7B8FC07BDC04678
:1034A000F6280020056885F3088846680022EFF3B7
:1034B00005839A42301C02D1084CA6463047074C7F
:1034C000064D061C064FF0B40024002500260027F8
:1034D000F0B404480047C04670470000FFFFFFFFFC
:1034E00000000021F9FFFFFF76DF7047A0DF704783
:1034F000A2DF7047A4DF7047A6DF704763DF704725
:10350000074B1B681B185B785A0701D5303805E05C
:1035100003221340012B00D120305738C0B270472E
:10352000A4210020F7B5071C0C1C0192051C019A70
:103530007B1B934218DA237800262D3B5A425341D5
:10354000E4182078B04204D0FFF7DAFF0601013416
:10355000F6B22078002804D0FFF7D2FF06430134EA
:10356000F6B2EE73013DE2E7F7BD000038B50B8817
:103570000C1C112B05D0502B07D0102B2AD18B8877
:1035800001E001235B42438424E08B1DCA88418A09
:10359000914208D1104A002A1CD0201C2030198BDF
:1035A000FBF794FF16E0418B914213D10B4A9D7EAD
:1035B000002A06D1012D0DD1A0881321FFF794FF19
:1035C00008E01A8B211C013A281C213100E000BFC1
:1035D0000028EFD138BDC046CDF401000000000046
:1035E000F0B501235B424384A74B91B01A78051CC8
:1035F000012A04D1A54B02704380027117E009AC87
:10360000032A16D1A24B201C19681022FFF78AFF4B
:10361000637B227B1B0213436B80201C291CFFF75A
:103620006DFF002800D02AE12B782B716B88EB808E
:1036300020E001230370022A09D1954B201C196850
:10364000FFF770FFE37BA27B1B02134300E0914B6B
:103650006B80201C90491022FFF764FF637B227B64
:103660001B021343EB80291D201CFFF747FF002896
:1036700000D004E12B7802A98B706B882A1C0120F2
:1036800008320B80FFF732FF041E00D0F8E0211C47
:103690000322684604F094F90122102313436A467A
:1036A00013700122102313436A4653709378062245
:1036B0009343022209AE13436A469370211C1C22D5
:1036C000301C04F07DF93378022213431022134397
:1036D000337000AB73612B796A469373EB88211CBE
:1036E0000133938101A803227460F4603461B461F2
:1036F00004F066F90122102313436A461371002374
:103700005371937906229343022213430822934371
:1037100010229343012204AF13436A469371211C84
:103720001422381C04F04CF903AB049301AA1423AF
:103730007A603C817C81BB813C612B1C2889311CD7
:103740003A1C0A33FFF7D4FE041E00D098E0211C77
:103750001C22301C04F034F933780822134304226D
:10376000134333702B796A469373EB88211C023321
:10377000938101A803227460F46034617461B461C0
:1037800004F01EF96A460023137153790F22934304
:10379000012213430F221340102213436A46537130
:1037A0009379062293430222134308229343102263
:1037B0009343012293436A469371211C1422381CBF
:1037C00004F0FEF803AB049301AA14237A603C8151
:1037D0007C81BB813C612B1C2889311C3A1C123333
:1037E000FFF786FE041E4BD1211C1C22301C04F066
:1037F000E7F83378082213430422134333702B79FC
:103800006A469373EB88211C0333938101A803223A
:103810007460F46034617461B46104F0D1F86A4694
:103820000023137153790F229343012213430F2274
:103830001340102213436A4653719379062293432F
:1038400002221343082293431022934301229343FD
:103850006A469371211C1422381C04F0B1F803ABA2
:103860003B6001AA14237A60BB813C817C813C616E
:103870002B1C28891A33311C3A1CFFF739FE041C13
:10388000201C11B0F0BDC046AE2500202022000053
:10389000B025002084FEFFFFE099020070B586B0DD
:1038A000141C051C08220E1C6846002104F088F830
:1038B00000236A465380231C142C00D914236A4623
:1038C00013806989688C0196FFF714FE011E18D1D8
:1038D0006A8C0D4B9A4214D002AC1022201C04F0CA
:1038E0006FF86B896A4623800123A3705388019A7D
:1038F000A38000ABA360E260211C688CFFF7FCFD95
:10390000011C081C06B070BDFFFF000030B51F4B46
:103910001F491A6EA1201479C0000C5054791D481B
:1039200000250C50012008601B4C586E08519479FA
:10393000017D2143C174A224184964000D51141C57
:10394000926808341C66541C02D0154BCA5030BD16
:103950001A1C1830483290420BD858669A6E824230
:103960000AD01A1C6C321A66D96E0C4A0C4BD15014
:10397000EDE75B66181CF1E7094B084A0121D150BD
:10398000084B094A5B6D1A62E1E7C046FC2800203B
:1039900000100040540500000405000000800040B5
:1039A000440500007C2900204D3C0200444B862247
:1039B0005200002130B59950424A2C20105C022858
:1039C00000D030BD8020C0001858002874D03E4878
:1039D00003251858C47C2C40857D032C2AD0384BF5
:1039E000A921C900595849420175384959580183DC
:1039F000A121C9005B580B214D1B61006418437560
:103A0000291B936CC9B25943314B32485B6D186224
:103A1000D36C314AC91A314B99500122DA60002126
:103A2000A222520099508021C0232D4A49005B00F8
:103A3000D150C6E7022DD2D188246400195101214A
:103A40001961A921C9005958494201751F4959589E
:103A50000183A121C9005D5845753020105C585084
:103A60003421505C1F495850201C19580029FCD0A3
:103A7000134B012159601649936B081C1C3390317C
:103A800058308B4200D9031CD16B994209D00E49A2
:103A90000B489363802443508021114864034900FC
:103AA0004450546C01200021106499750A4A0B4B54
:103AB000D03C9C50D860B3E701229A6081E7C046B1
:103AC00000100040FC290020040500000C04000048
:103AD0007C290020E93A02004405000000800040F3
:103AE00000E100E0540500002749A2225200002313
:103AF00030B58B50254A2C21515C022900D030BDB5
:103B00002348882149004350012303613023D45CBA
:103B1000A123DB00C4503423D45C1E4BC450435853
:103B2000002BFCD01A4B012159601B49936B081CD8
:103B30000C1C1C3390305834834223D8D06B9842ED
:103B400009D01648124C9363802523508020144CD2
:103B50006D0340002550556C0020012498751464B5
:103B6000094B104AD03D9D50A2225200DC60985073
:103B70000B4A8020C0235B004000D0504B6D0A4AA6
:103B80001A62BCE7231CD9E700800040FC29002012
:103B900000100040540500007C29002004050000AE
:103BA00000E100E044050000AD3B0200A2222149F3
:103BB00010B552000023204C8B502C22A25C022A0C
:103BC00000D010BD1D4888214900435001230361E6
:103BD00043581A4A002BFBD0236C211C3031C85C9F
:103BE000A121C9005050211C3431C85C14495050E7
:103BF0000121516013495258937501332364012BFD
:103C00000CD0022B06D00122032B0AD00E4B0949FF
:103C1000CA50D6E7626C5200D03AF7E7626CD03AED
:103C2000F4E7636C1A1CD03A5B00D21800232364BB
:103C3000ECE7C04600800040FC2900200010004056
:103C4000540500000405000044050000F0B52E49AD
:103C5000882200234F4646465200C0B48B500123B1
:103C60000B618B582848002BFBD0284C2C220025B8
:103C7000A554274B9046A22252009D50254A01216F
:103C8000566E976E5960D960BE4215D04046215499
:103C9000101C6C301066D06E1F4A98500120A9226B
:103CA0004042D20098501D4A1D48526D1062196062
:103CB0000CBC90469946F0BD5022A75C002FF7D06F
:103CC000164FA5545822D219E263A26391460226E8
:103CD0004246A654134E4A46825112268022FF368F
:103CE000920086507A6D104E5660104E16628622F3
:103CF00052008550C122920008268650064A25644B
:103D000099501960D4E7C04600100040FC290020FB
:103D100000800040FC280020440500007C29002091
:103D20000D39020004050000AD390200AD3B020070
:103D3000F8B52D4C5123E55C071C0023002D01D163
:103D4000181CF8BD294D606DAB6E2A1C1E1C183660
:103D5000483296422DD86A6EB24243D08A001A7514
:103D60000F2218600A40181D391C03F020FE2C2376
:103D7000E25CAE66022A1ED02C22A15C012300293F
:103D8000DED11B488021890003264650A3542A1CFB
:103D90006C322A66E86E174A174950500120A92153
:103DA0004042C900505015491548496D08621360DA
:103DB000C6E72E1CCFE700200D498822E0545200B0
:103DC000012388500B618B58002BFCD0084AC2237A
:103DD0009B000821D150074A01235360D360502231
:103DE000A354C9E70023ABE7FC290020FC280020EE
:103DF0000010004000800040440500007C290020A5
:103E00000D3902001E4B51229A5C10B5002A36D0A3
:103E10002C22995C022932D0995CC9B201290BD1BC
:103E200050201C5C002C2AD11954995C012926D001
:103E30009A5C1C54022A22D0124802242C229C5440
:103E4000011C114A114C5831D96399631151122444
:103E50008021FF3489005450416D0D48082448608A
:103E60000C4808628620002140001150C1208000CB
:103E700014501964084B094901225A501A6010BDA8
:103E8000FC2900207C2900200010004004050000CF
:103E9000AD390200AD3B0200008000404405000047
:103EA000F0B55F4656464D464446F0B410231A68B6
:103EB000E14B83B09A4201D0FCF7A0FCDF4D2A68A9
:103EC000531E012B00D9FEE72B790421181C8843CF
:103ED0000ED059B20C1C08340AD040B2103007D0B2
:103EE000102083435BB2143302D01E3100D0FEE7B2
:103EF000AB68013B022A02D00B2B02D9FEE7162B3E
:103F0000FCD8CF4B1B68002B00D08FE1CD4CA76DA8
:103F1000002F15D1261C5C36CB49C022301C03F083
:103F200046FDCA4B8022D2058021D0588905D75042
:103F30000F68A7650E60D050221CC54B9C325A6595
:103F4000FCF7C8FDC34BC44A606501209850C34AC2
:103F500034219950C249C34AC34F99500022924616
:103F6000C24A56469E50C24EA322D2009E50C14A1B
:103F700002269E50C04A81469F50C04FA722D200C1
:103F80009F50BF4AC027BF00D059BE490840D051FA
:103F90001660A622D2004E469E50AC4A57469F500D
:103FA0002868A222D200985004216956B64A804659
:103FB0009950022800D131E1AB68DD01ED1A6D00A6
:103FC000EDB22E1C1A363435F6B2EDB23022A654BC
:103FD000321C231C3732D2B23033301C91469A70D7
:103FE0005D7000F06DFA3423E054071C281C00F0CB
:103FF00067FA251C34356870484600F061FAA870ED
:10400000A24D0123A2496B609A46EB6000236B50DE
:10401000A221C9006B50A1210320C9006850984912
:10402000C22080000A588346FF20824358460A5027
:104030008020400008608020C121800289006850F3
:104040008021524689006A50A8224046D2009046FC
:10405000012800D1D3E08F4A40462A502C22A35495
:10406000502228580321A35401F01CF841466064F3
:1040700068580C2101F016F86023E364834AA823F2
:10408000DB00A064D0580C2101F00CF8824B011C1D
:104090001A1C6C321671577101204F1C0025261C0A
:1040A0005F67D86695713036A8467578BA4634276A
:1040B00015733F19AC46B94645467F788A449573D7
:1040C00055465773DD67B6788A44019616754E4695
:1040D000B6784546567500968426B0469575564680
:1040E00045465E513025665D3425B1461677665DDE
:1040F0005546B046567790778C266A189A51654691
:104100009026F55491269225F754E8545218942697
:10411000019D9A519826F5545218009D9246992671
:10412000F5549C2255469D509A261A1CF054A032F4
:104130004E4616701A1C4546A1321570A42502225F
:104140008A44AB46A226F25455465E469D51A826A7
:104150006546F554A926F754AC268A44AA25B346E9
:10416000EA5456465D465E51019EB025EE54009ECF
:10417000B125EE548A44B225EA545646B4229E50E4
:104180001A1C4D46B83215701A1C4646B9321670C4
:10419000BA22D2189046454603222A708846BC258A
:1041A000D044A9464E4645469D51C0266546F55425
:1041B000C126F7541F1CC2373A704144C427D95155
:1041C000191C019FC8310F70009D191CC9310D7059
:1041D000191CCA310A7001214942CC2299505B66F0
:1041E0009B665123E0542D4B002B01D0FFF70AFEB4
:1041F00003B03CBC90469946A246AB46F0BD284A67
:1042000041466A502C22A35450226858A3540321DB
:1042100000F048FF42466064A8582AE72B7A192626
:104220003325F61AEB1AF6B2DDB2CFE61D4B054C7C
:104230001A68074B5A6583E601E01E5BD420002014
:10424000F4240020FC29002000F001002C050000CF
:104250007C29002000100040FC0F00002405000015
:104260000000D2591C050000FFFF000014050000EB
:1042700014140202340500003C0500002110010165
:1042800000E100E0FF00FFFF0C050000008000409F
:104290000405000000EE0200FC28002000000000E1
:1042A00080BB0000E0200020124B2C22995C0029EA
:1042B00017D0995C012915D000202C2298540E4962
:1042C00088225200012388500B618B58002BFCD0B0
:1042D000094AC2239B000821D150084B01225A6091
:1042E000DA6070479A5C002050215854022AF8D1B5
:1042F000E2E7C046FC29002000100040008000409A
:1043000038B5124C2C23E25C0023022A01D0181C81
:1043100038BDE56BA26B9542F9D0EB7C0A1CEB75BE
:104320009B08EB741C290FD8D2B2291C03F03FFB69
:10433000074AE36B111C1C3390325831934200D969
:104340000B1CE3630123E2E71C22EDE7FC290020BC
:104350007C290020F0B54B4A2C23D15C5F465646A1
:104360004D464446F0B4002918D0D15C012900D153
:104370007FE000232C2153544348882149004350B7
:10438000012303614358002BFCD03F49C2239B000B
:104390000820C8503D4B01215960D9602C21535C45
:1043A000DBB2002BFBD13849394880270B50394804
:1043B000C2240B50384801260B50A320C0000B50DC
:1043C0003648A4000B503648BF000B50A720C00051
:1043D0000B50A620C0000B50A220C0000B5031484B
:1043E00076420B50A120C0000B5084462E480B5043
:1043F0002E480B508046CB512D480E51C0218900CC
:1044000045588B462B49A9460D1C49460D40594637
:1044100045508025022141511C49A94645464B5132
:1044200065464B51CB51A827FF00CB51224FCB51B2
:10443000A927FF00CB510E510159FF26B14301516D
:10444000802149004C460151916D002908D01B483C
:10445000E40525588026B605235031602550936524
:1044600000215123D1543CBC90469946A246AB460C
:10447000F0BDD35C002050215054022B00D08DE7BA
:1044800077E7C046FC290020001000400080004073
:10449000240500001C050000140500003405000080
:1044A0003C0500000C050000540500000405000058
:1044B00000E100E0FF00FFFF440500002C050000C4
:1044C000102303408206D20FDB1013430822024060
:1044D00052101343042202405200134302220240AE
:1044E000D200134301221040400103433F20984370
:1044F0007047C04608B505210022FCF7E5FA08BD63
:1045000008B5034B82001B68D150FCF7C5F908BD04
:10451000E02000200000000030B50F4DAB68002BFC
:1045200010D00E4C0B4B0A4A2068616812184B41A0
:104530002260636020686168CBB2021C2260636005
:104540000023AB6000236B6430BDC046C046C0464C
:104550000000000100000000FC100140182B0020AA
:104560000B4B0C4A186859680B4B10B5D4580023F4
:10457000221C80185941054B034A00F0BBFE4B0436
:10458000C00B1843C90B10BDE80300000000000079
:10459000182B00200010014004050000C046C04652
:1045A00008B5FFF7DDFF08BD38B5041CFFF7F8FFBD
:1045B000051CFFF7F5FF401BA04202D200F062FC91
:1045C000F7E738BD01380BD3C046C046C046C046E9
:1045D000C046C046C046C046C046C046C046F1E7D9
:1045E000704700000F4B10B51A680323511E8A4113
:1045F000524213400C4A11681022002900D00822B0
:10460000A0210A4CC9006458012199400C4201D1F3
:10461000834204D101339342F2DBFF2000E0181CF7
:1046200010BDC046E4240020F024002000F001402A
:1046300070B5184E4500041CA85DFF2803D0FCF798
:1046400017F9FF23AB5575196878FF2803D0FCF7DD
:104650000FF9FF236B70104B1A5DFF2A07D045320C
:10466000FF320E480E4992005050FF221A55002387
:104670000C4A9A181178A14201D1FF2111700A4AFF
:104680009A181178A14201D1FF2111700133032B37
:10469000EED170BD3F20002082200020001E0300CC
:1046A000006000407F2000203C20002000B5021E5A
:1046B0001F2A27D80C2925D8C132A023FF32081C75
:1046C000DB05920000F0E4FC07140B07090D0F1244
:1046D0001416181A1C00002113E0042111E00C210B
:1046E0000FE001210DE00221FF310AE0064908E058
:1046F000064906E0064904E0064902E0064900E0F2
:104700000649995000BDC0460102000001030000A7
:10471000010400000105000001060000010700007F
:1047200070B50B4D041C2B5C0E1C002B03D0FFF747
:104730007FFF00232B550122A023A240DB05141C80
:10474000002E02D0A121C90000E002495C5070BDDA
:10475000C42400200C050000F8B5061C0C1C8F18A2
:104760000025BC4207D0336821781B68301C98476D
:1047700001342D18F5E7281CF8BD70B5051C0C1E7A
:1047800009D00368081C5E6803F0EEF9211C021CC6
:10479000281CB04700E0081C70BDF7B50024061CBB
:1047A0000D1C271CAB689C420ED23368211C1B6871
:1047B000281C019300F03AFB019B011C301C984718
:1047C00001343F18A4B2EDE7381CFEBD08B5FFF771
:1047D000D4FF08BD08B503681B68984708BD0000F2
:1047E00008B5036802495B680222984708BDC046C5
:1047F000059A020038B5041CFFF7CFFF051C201CEA
:10480000FFF7EEFF401938BD38B5041CFFF7B5FFC0
:10481000051C201CFFF7E4FF281838BD38B5041C20
:10482000FFF7D8FF051C201CFFF7DAFF401938BD41
:10483000F0B58BB0151C09AB0022071C0E1C1A70BA
:10484000012D00D80A256C462334301C291C00F0A9
:1048500029FC031C6B43F61AF6B2211C092E01D861
:10486000303600E03736F6B22670013C002801D021
:10487000061CEAE7381CFFF780FF0BB0F0BDF8B567
:10488000041C0D1C161E04D10368C9B21B6898478E
:1048900012E00A2A0DD100290ADA2D21FFF79AFF2A
:1048A0006942071C321C201CFFF7C2FFC01903E03D
:1048B00000E0D2B2FFF7BCFFF8BD08B5FFF7DFFF9D
:1048C00008BD38B5041CFFF7DAFF051C201CFFF7F4
:1048D00087FF281838BD0000F7B51C1C08AB1B78F3
:1048E000071C211C101C151C009300F0A1FB0028C4
:1048F00002D1381C504907E0281C211C00F098FB0D
:10490000012804D14D49381CFFF737FF7CE0281CF3
:10491000211C404B3E4A00F09FFC002802D0381C6E
:104920004749F1E7281C211C3B4A3C4B00F080FC26
:104930000028F4D1281C211C394A3A4B00F078FC9D
:10494000002808D02D21381CFFF744FF80210906DC
:104950000190641800E001900026334A334B00991F
:104960008E420AD0101C191C314A324B01F0FAFB5E
:104970000136021C0B1CF6B2F1E7281C211C01F0C9
:10498000D5F80D1C041C00F0D7FC061C02F080FEBC
:104990000B1C021C291C201C02F0DEFA0A22041C3B
:1049A0000D1C381C311CFFF743FF019B0099C618F2
:1049B000002904D0381C2349FFF7DFFE3618009B7E
:1049C000002B20D01A4A1B4B201C291C02F034F863
:1049D0000D1C041C02F0EAFD01900A220199381C0A
:1049E000FFF74DFF3618019802F014FE0B1C021C55
:1049F000291C201C02F0B0FA009B041C013BDBB216
:104A00000D1C0093DBE7301CFEBDC046C046C0460F
:104A1000000000E0FFFFEF41000000E0FFFFEFC1FA
:104A20000000000000000000000000000000E03F67
:104A30000000000000002440089A02000C9A0200C6
:104A4000109A02009399020013B5049CE1B2009100
:104A5000FFF742FF16BD37B5041C0698C1B200919E
:104A6000201CFFF739FF051C201CFFF7B9FE281892
:104A70003EBD10B500214022041C02F0A1FF00231E
:104A80002364201C636410BD036C3F220133134078
:104A9000426C934202D0026C81540364704701203F
:104AA00070470369186C5B6C4030C01A3F23184094
:104AB00070470369196C5A6C914202D05A6C985C29
:104AC00001E00120404270470369196C5A6C914221
